:100000000C943A000C9457000C9457000C94570031
:100010000C9457000C9457000C9457000C94570004
:100020000C9457000C9457000C9457000C945700F4
:100030000C9457000C9457000C9457000C945700E4
:100040000C9457000C9457000C9457000C945700D4
:100050000C9457000C9457000C9457000C945700C4
:100060000C9457000C9457000C9457000C945700B4
:100070000C94570011241FBECFEFD4E0DEBFCDBFDC
:1000800013E0A0E0B1E0E0E3FDE002C005900D92D6
:10009000AA33B107D9F723E0AAE3B3E001C01D9268
:1000A000A135B207E1F70E94CC050C9496060C949A
:1000B0000000CF93DF9300D0CDB7DEB789831A82DB
:1000C000CE0101960E940D040F900F90DF91CF9109
:1000D00008958617B1F0803529F481E090E062350B
:1000E00071F413C0833529F481E090E0603539F470
:1000F0000CC0823541F481E090E0633531F080E05E
:10010000089582E001C080E090E00895E1E6F0E02B
:1001100080E880831082A89584B7877F84BFE0E65B
:10012000F0E080818861808310820895853098F4A2
:10013000673088F421E030E001C0220F6A95EAF7C9
:10014000E82FF0E0E55CFC4F922F909580818923A9
:100150004111822B80830895853080F4673070F4DC
:10016000E82FF0E0E55CFC4F81E090E001C0880FF3
:100170006A95EAF79081982381E009F480E0089578
:1001800060913A03E62FF0E0E55CFC4F80810E942D
:100190000E0180913A038F5F853018F480933A0303
:1001A000089510923A030895EBE3F3E01082118270
:1001B00012821382148208950E94EC000C94D400E1
:1001C0009C01FC01FF2784A1832B84A395A1892F87
:1001D000832B85A381E00895CF93DF93CDE1D3E016
:1001E000899199910E94E00083E0CB32D807C1F752
:1001F00083E090E40E94E00080E090E80E94E0004C
:1002000083E090E10E94E00083E090E80E94E0003B
:1002100083E090E2DF91CF910C94E000E091400305
:10022000F0E0EE0FFF1FED5EFC4F20813181F90100
:10023000FF2795A1932B95A3EDE1F3E097E02081B3
:100240003181D901BB2795962C91959780FF03C0EA
:100250003095232301C0232B95962C93869591509E
:1002600032969111ECCFE62FF0E0EE0FFF1FED5E1E
:10027000FC4F80819181FC01FF2785A19095892306
:1002800085A36093400308956230710511F168F40D
:100290006130710551F5FC01FF2724A1892F80955C
:1002A000922F982394A395A112C06330710541F059
:1002B00064307105D1F4FC01FF2784A1892B0FC0A4
:1002C000FC01FF2784A1892B84A385A19095892314
:1002D00009C0FC01FF2724A1892F8095822384A3D4
:1002E00085A1892B85A381E0089580E00895E82FFA
:1002F000F0E0EE0FFF1FEF5BFC4F8081882321F0C1
:10030000918181E0892702C080E090E081700895AA
:10031000E82FF0E0EE0FFF1FEF5BFC4F80818111B3
:1003200002C0818102C080E090E081700895E82FD2
:10033000F0E0EE0FFF1FEF5BFC4F80810895E82F88
:10034000F0E0EE0FFF1FEF5BFC4F908181E089270B
:1003500008956F927F928F929F92AF92BF92CF92A9
:10036000DF92EF92FF920F931F93CF93DF9300D012
:10037000CDB7DEB721E4622E23E0722E3BE2C32E1E
:1003800033E0D32E812C46E0942EF30180818183CB
:10039000F601019111916F015801BB24F50184A16F
:1003A000E12EFF2425A130E02E213F2141E0232B27
:1003B00009F440E090E08E219F21892B29F0411122
:1003C00008C023E030E00AC0411106C021E030E05F
:1003D00005C024E030E002C022E030E064E070E0DC
:1003E000C80129833A830E94440162E070E0C80199
:1003F0000E944401892D8A95F1F7F50183A190E0CF
:10040000E822F92281E029813A81EF2809F080E091
:10041000F3018083B901C8010E9444018394F2E092
:100420006F0E711C85E08812B0CF0F900F90DF9196
:10043000CF911F910F91FF90EF90DF90CF90BF90E1
:10044000AF909F908F907F906F9008950895CF9375
:10045000DF93EC010E94A9059E0140E050E062E1BB
:100460007AE780E090E00E94460630934E032093A6
:100470004D03DF91CF91089580914B0390914C03F0
:100480000E94B80520914B0330914C0380914D039D
:1004900090914E03820F931F90934C0380934B03D4
:1004A000089541E0611101C040E0692F0C9496006D
:1004B000692F0C94AC0041E0611101C040E0692F4C
:1004C0000C9496004F925F926F927F928F929F92C0
:1004D000AF92BF92CF92DF92EF92FF920F931F9352
:1004E000CF93DF931F92CDB7DEB7862E942E5C019B
:1004F000E62EF72E262F660F330B281B310987FDBA
:100500003395072F072E000C110B091B110997FDBE
:10051000139537FF03C077247A9402C0772473942D
:1005200017FF03C066246A9402C0662463942901FD
:1005300037FF03C051944194510817FF03C0119530
:100540000195110940165106A4F06201D594C79493
:10055000F92EA81421F1692D8A2D9F2D0E945B028E
:10056000C01AD10AD7FE03C0C40CD51CF60CA70CC8
:10057000F0CF6801D594C794E82EB71681F0692DA5
:100580008E2D9B2D79830E945B02C418D50879813A
:10059000D7FE03C0C00ED11EE70CB60CEECF692DFE
:1005A000C7010F90DF91CF911F910F91FF90EF90B6
:1005B000DF90CF90BF90AF909F908F907F906F9083
:1005C0005F904F900C945B02FF920F931F93CF9319
:1005D000DF93D82FF92E162FC72F042F792F0E94C3
:1005E0006202402F6D2F7C2F8D2F9F2D0E94620263
:1005F000402F612F7C2F812F9F2D0E946202402F60
:10060000612F7C2F8D2F9C2F0E946202DF91CF9152
:100610001F910F91FF9008950E94D400E0E0F1E057
:10062000118A14860895DF92EF92FF920F931F9321
:10063000CF93DF93D82E7B01162F0F2D80910201CF
:1006400090910301C0E00197A1F50F2D0C1BE091E3
:100650000801F09109018181C817C0F4D0E08091B0
:10066000080190910901FC012281D21768F42D2F15
:100670004C2F6D2D0E94D204682F8D2F8E0D902F40
:100680000E945B02DF5FEBCFCF5FDFCFC0E0E09186
:100690000801F09109018281C81740F460E08C2FB5
:1006A0008E0D902F0E945B02CF5FF1CF015031C0C1
:1006B000CF5F1C2F1E0DE0910801F091090181818F
:1006C000C817B0F4D0E08091080190910901FC01B5
:1006D0002281D21768F72D2F4C2F6D2D0E94D20446
:1006E000682F812F9D2F9F0D0E945B02DF5FEBCF54
:1006F000C0E0E0910801F09109018281C81740F43F
:1007000060E0812F9C2F9F0D0E945B02CF5FF1CF95
:100710001F5F812F902FDF91CF911F910F91FF903D
:10072000EF90DF9008951F93CF93DF93182FEC0184
:100730008C2F811B9991992351F0892F0E941303CB
:10074000BC018C2F811B653014F477FFF1CFDF9152
:10075000CF911F9108950F931F93CF93DF93EC01D7
:100760009B0110920C0140930D0110921001009119
:100770000801109109010115110509F449C0F8019A
:100780008181609106017091070190E00E9421062D
:10079000BC0180910A0190910B010E943206CB01AD
:1007A0006AE070E00E94210690930F0180930E0191
:1007B000309305012093040140E250E0BE0181E145
:1007C00091E00E94870680910001909101010197BC
:1007D000F9F4FE0101900020E9F7CF010197F8013B
:1007E0009181692F70E06F5F7F4F8C1B0E9418060C
:1007F000815020910201309103012130310511F027
:1008000095E001C097E0981718F48EEF80931001DF
:10081000DF91CF911F910F910895209102013091A6
:1008200003012130310511F070E001C076E04FEF97
:1008300060E00E94AB03089590E0909307018093DD
:10084000060108959093010180930001089590930B
:100850000301809302010895909309018093080198
:10086000089580914F039091500301969093500307
:1008700080934F0320910E0130910F01821793074F
:1008800008F469C01092500310924F03E0910C01DC
:10089000F0E0E050FF4F818981110AC080910D0185
:1008A000823008F458C0815080930D0110920C01E1
:1008B00080910C0190E0FC01E050FF4F2189222340
:1008C00009F449C0409100015091010120911001AB
:1008D0004115510521F04130510599F024C02111F5
:1008E00022C060910401709105018F5E9E4F0E94AD
:1008F000930390E0019790910C01890F80930C0174
:1009000012C0609104017091050140910201509163
:1009100003014130510511F4720F01C0621B8F5E5B
:100920009E4F0E949303809110018F5F809310016E
:10093000082E000C990BE0910801F091090121812A
:1009400030E0281739073CF41092100180910C0117
:100950008F5F80930C010C94C000CF93DF93C0E0B5
:10096000D1E09B878A870E94DC0084E190E09F832E
:100970008E83DF91CF910C940C03009789F0FC01DA
:100980002381621B67FD09C0062E000C770B2481B2
:1009900030E081E0621773070CF080E08170089509
:1009A00080E00895CF93DF93FC01A62F822F30972C
:1009B00071F16181461758F59281291740F59381AD
:1009C000A91BA7FD24C00A2E000CBB0BC481D0E0DC
:1009D000AC17BD07E4F40E941806480F658170E06B
:1009E000CD010E9421060696242F26952695269550
:1009F000E80FF91FE20FF11D9081892F90E04770F9
:100A000002C0959587954A95E2F7817001C080E014
:100A1000DF91CF910895CF93DF931F92CDB7DEB7CB
:100A20009E012F5F3F4F45E065E373E00E94800524
:100A300091E0980F909331019981915097BD18BC26
:100A400095B5977039F095B5209131012770987F51
:100A5000922B95BD298130E0E82FF0E0EB5CFC4F54
:100A6000C901008002C0880F991F0A94E2F70F9015
:100A7000DF91CF91089585B3897F85BB85B590912E
:100A800031019770887F892B85BD089585B5887F52
:100A900085BD089585B382FB882780F90895009766
:100AA00019F0019741F0089584B56295660F660FBD
:100AB000607C8F7305C084B563706295607F8F7CA6
:100AC000682B64BD0895009741F0019759F484B5EF
:100AD0008E7F84BD84B5826002C084B58C7F84BD66
:100AE00081E0089580E0089514BC15BC16BC18BCC4
:100AF00084B58E7F84BD84B5826084BD81E0089515
:100B0000CF93DF93DC01562FFB0160E070E0C1E082
:100B1000D0E08E2F851B8417B8F49191BE01092E69
:100B200002C0660F771F0A94E2F76F5F7F4F7695DA
:100B300067956A0F7B1F02C0769567959A95E2F7D5
:100B40006F3F710509F028F7F9016083DF91CF91BC
:100B500008951092800084E08093810010928500B7
:100B600010928400089580918400909185000895EA
:100B7000AC0180918400909185009C01241B350B71
:100B8000283E3340B0F708952091840030918500CD
:100B9000820F931F0C94B805CF93DF9300D01F9260
:100BA000CDB7DEB780E5898383E58A8382E58B83D1
:100BB0000E94860084EF91E00E94AD0482E391E000
:100BC0000E942C048AE00E941C040E94260284EFEA
:100BD00091E00E94270200E010E00E943C020E9487
:100BE00031040E94A90183E00E947701882331F03B
:100BF0000150110998F402E010E010C081E00E9459
:100C00007701882341F00F5F1F4F0330110531F446
:100C100000E010E003C084E00E947701E1E0F0E032
:100C2000EC0FFD1FE00FF11F80810E945900D5CF0E
:100C3000002480FD060E660F11F08695D1F7802DF9
:100C400008950024552704C0080E591F880F991FC6
:100C5000009729F076956795B8F37105B9F7802D5F
:100C6000952F0895AA1BBB1B51E107C0AA1FBB1FEC
:100C7000A617B70710F0A61BB70B881F991F5A9528
:100C8000A9F780959095BC01CD010895052E97FB9D
:100C90001EF400940E945D0657FD07D00E94650671
:100CA00007FC03D04EF40C945D06509540953095AA
:100CB00021953F4F4F4F5F4F0895909580957095C8
:100CC00061957F4F8F4F9F4F0895A1E21A2EAA1B67
:100CD000BB1BFD010DC0AA1FBB1FEE1FFF1FA217EC
:100CE000B307E407F50720F0A21BB30BE40BF50BE9
:100CF000661F771F881F991F1A9469F76095709572
:100D0000809590959B01AC01BD01CF010895FB0139
:100D1000DC014150504048F001900D920020C9F78D
:100D200001C01D9241505040E0F70895F894FFCF64
:100D3000000000000000140000000000000000009F
:100D400000000000000000000000000000000000A3
:100D50000000000000000000000000000000000093
:100D60000001010507205F050000000000C61863B0
:100D700080014A290000004A7DF59502C417471FEB
:100D800001632222320626155193058608000000D1
:100D90008808210802822084880080545709008036
:100DA000904F0800000060880000800F00000000E5
:100DB000008C0100222202002EE63AA303C4104256
:100DC00088032E4244C4072E4207A30388A9F411C6
:100DD000023F8407A3032E8617A3033F4244080162
:100DE0002E4617A3032E460FA303C018600C00C0A5
:100DF000186088008888200802007CF001008220AA
:100E00008888002E424400012E425BAB0344C51F7C
:100E100063042FC617E3032E8610A2032FC618E320
:100E2000033F8417C2073F841742002E861EA30784
:100E300031C61F63048E10428803104218A3033189
:100E400095515204218410C20771D71A630471D6D8
:100E50001C63042EC618A3032FC61742002EC658C3
:100E600093052FC61763042E0607A3039F1042089D
:100E70000131C618A30331C618150131C65AAB0299
:100E8000312AA26204312A4208011F2222C2072706
:100E90008410C20120088220000E21849003444562
:100EA000000000000000C00782200000000038E8B9
:100EB000A30721B419E30300B810A20310DA1CA39E
:100EC0000700B8F883034C8A238400C0C7E8A10355
:100ED00021B4196304041842880308308492012164
:100EE000A4324A02861042880300AC5A630400B45C
:100EF00019630400B818A30300BCF8420000D8EC42
:100F0000210400B419420000B8E0E003421C21248F
:100F10000300C418B30500C418150100C45AAB027D
:100F2000004445540400C4E8A103007C44C407887D
:100F30001041080284104208018210448800008891
:100F40008A0000034000800310038003200040005B
:100F50002000100008000400020001038003400389
:0A0F60002000800310000306080AB9
:00000001FF
