:100000000C943A000C9457000C9457000C94570031
:100010000C9457000C9457000C9457000C94570004
:100020000C9457000C9457000C9457000C945700F4
:100030000C9457000C9457000C9457000C945700E4
:100040000C9457000C9457000C9457000C945700D4
:100050000C9457000C9457000C9457000C945700C4
:100060000C9457000C9457000C9457000C945700B4
:100070000C94570011241FBECFEFD4E0DEBFCDBFDC
:1000800011E0A0E0B1E0E6EAF2E002C005900D92D6
:10009000AA30B107D9F721E0AAE0B1E001C01D9272
:1000A000A431B207E1F70E944C010C9451010C9469
:1000B0000000E1E6F0E080E880831082A89584B734
:1000C000877F84BFE0E6F0E08081886180831082D2
:1000D00008956230710511F168F46130710551F5D0
:1000E000FC01FF2724A1892F8095922F982394A3A8
:1000F00095A112C06330710541F064307105D1F4EF
:10010000FC01FF2784A1892B0FC0FC01FF2784A1DC
:10011000892B84A385A19095892309C0FC01FF2721
:1001200024A1892F8095822384A385A1892B85A36F
:1001300081E0089580E00895E82FF0E0EE0FFF1FC2
:10014000E65FFE4F8081882321F0918181E089273D
:1001500002C080E090E081700895E82FF0E0EE0F9B
:10016000FF1FE65FFE4F8081811102C0818102C0C6
:1001700080E090E081700895E82FF0E0EE0FFF1F1F
:10018000E65FFE4F80810895E82FF0E0EE0FFF1F3D
:10019000E65FFE4F908181E0892708956F927F92FC
:1001A0008F929F92AF92BF92CF92DF92EF92FF9287
:1001B0000F931F93CF93DF9300D0CDB7DEB72AE024
:1001C000622E21E0722E30E0C32E31E0D32E812C3E
:1001D00046E0942EF30180818183F6010191119113
:1001E0006F015801BB24F50184A1E12EFF2425A154
:1001F00030E02E213F2141E0232B09F440E090E044
:100200008E219F21892B29F0411108C023E030E085
:100210000AC0411106C021E030E005C024E030E012
:1002200002C022E030E064E070E0C80129833A8334
:100230000E94690062E070E0C8010E946900892D97
:100240008A95F1F7F50183A190E0E822F92281E097
:1002500029813A81EF2809F080E0F3018083B90118
:10026000C8010E9469008394F2E06F0E711C85E062
:100270008812B0CF0F900F90DF91CF911F910F9107
:10028000FF90EF90DF90CF90BF90AF909F908F90B6
:100290007F906F90089508950E9459000E944B012D
:0602A000FFCFF894FFCF30
:0A02A60003800340032000800310D2
:00000001FF
